:020000040000fa
:080000000002040000000000f2
:020000040000fa
:040008007804000078
:020000040000fa
:04000c00ce0300001f
:020000040000fa
:04001000ee030000fb
:020000040000fa
:04001400b80400002c
:020000040000fa
:040018009804000048
:020000040000fa
:04001c0000050000db
:020000040000fa
:040020000e040000ca
:020000040000fa
:0400240000050000d3
:020000040000fa
:0400280000050000cf
:020000040000fa
:04002c0000050000cb
:020000040000fa
:0400300000050000c7
:020000040000fa
:0400340000050000c3
:020000040000fa
:0400380000050000bf
:020000040000fa
:04003c0000050000bb
:020000040000fa
:0400400000050000b7
:020000040000fa
:0400440000050000b3
:020000040000fa
:0400480000050000af
:020000040000fa
:04004c0000050000ab
:020000040000fa
:0400500000050000a7
:020000040000fa
:0400540000050000a3
:020000040000fa
:04005800000500009f
:020000040000fa
:04005c00000500009b
:020000040000fa
:040060000005000097
:020000040000fa
:040064000005000093
:020000040000fa
:04006800000500008f
:020000040000fa
:04006c00000500008b
:020000040000fa
:040070000005000087
:020000040000fa
:040074000005000083
:020000040000fa
:04007800000500007f
:020000040000fa
:04007c00000500007b
:020000040000fa
:040080000005000077
:020000040000fa
:040084000005000073
:020000040000fa
:04008800000500006f
:020000040000fa
:04008c00000500006b
:020000040000fa
:040090000005000067
:020000040000fa
:040094000005000063
:020000040000fa
:04009800000500005f
:020000040000fa
:04009c00000500005b
:020000040000fa
:0400a0000005000057
:020000040000fa
:0400a4000005000053
:020000040000fa
:0400a800000500004f
:020000040000fa
:0400ac00000500004b
:020000040000fa
:0400b0000005000047
:020000040000fa
:0400b4000005000043
:020000040000fa
:0400b800000500003f
:020000040000fa
:0400bc00000500003b
:020000040000fa
:0400c0000005000037
:020000040000fa
:0400c4000005000033
:020000040000fa
:0400c800000500002f
:020000040000fa
:0400cc00000500002b
:020000040000fa
:0400d0000005000027
:020000040000fa
:0400d4000005000023
:020000040000fa
:0400d800000500001f
:020000040000fa
:0400dc00da04000042
:020000040000fa
:0400e0000005000017
:020000040000fa
:0400e4000005000013
:020000040000fa
:0400e800000500000f
:020000040000fa
:0400ec00000500000b
:020000040000fa
:0400f0000005000007
:020000040000fa
:0400f4000005000003
:020000040000fa
:0400f80000050000ff
:020000040000fa
:0400fc0000050000fb
:020000040000fa
:0401000000050000f6
:020000040000fa
:0401040000050000f2
:020000040000fa
:0401080000050000ee
:020000040000fa
:04010c0000050000ea
:020000040000fa
:0401100000050000e6
:020000040000fa
:0401140000050000e2
:020000040000fa
:0401180000050000de
:020000040000fa
:04011c0000050000da
:020000040000fa
:0401200000050000d6
:020000040000fa
:0401240000050000d2
:020000040000fa
:0401280000050000ce
:020000040000fa
:04012c0000050000ca
:020000040000fa
:0401300000050000c6
:020000040000fa
:0401340000050000c2
:020000040000fa
:0401380000050000be
:020000040000fa
:04013c0000050000ba
:020000040000fa
:0401400000050000b6
:020000040000fa
:0401440000050000b2
:020000040000fa
:0401480000050000ae
:020000040000fa
:04014c0000050000aa
:020000040000fa
:0401500000050000a6
:020000040000fa
:0401540000050000a2
:020000040000fa
:04015800000500009e
:020000040000fa
:04015c00000500009a
:020000040000fa
:040160000005000096
:020000040000fa
:040164000005000092
:020000040000fa
:04016800000500008e
:020000040000fa
:04016c00000500008a
:020000040000fa
:040170000005000086
:020000040000fa
:040174000005000082
:020000040000fa
:04017800000500007e
:020000040000fa
:04017c00000500007a
:020000040000fa
:040180000005000076
:020000040000fa
:040184000005000072
:020000040000fa
:04018800000500006e
:020000040000fa
:04018c00000500006a
:020000040000fa
:040190000005000066
:020000040000fa
:040194000005000062
:020000040000fa
:04019800000500005e
:020000040000fa
:04019c00000500005a
:020000040000fa
:0401a0000005000056
:020000040000fa
:0401a4000005000052
:020000040000fa
:0401a800000500004e
:020000040000fa
:0401ac00000500004a
:020000040000fa
:0401b0000005000046
:020000040000fa
:0401b4000005000042
:020000040000fa
:0401b800000500003e
:020000040000fa
:0401bc00000500003a
:020000040000fa
:0401c0000005000036
:020000040000fa
:0401c4000005000032
:020000040000fa
:0401c800000500002e
:020000040000fa
:0401cc00000500002a
:020000040000fa
:0401d0000005000026
:020000040000fa
:0401d4000005000022
:020000040000fa
:0401d800000500001e
:020000040000fa
:0401dc00000500001a
:020000040000fa
:0401e0000005000016
:020000040000fa
:0401e4000005000012
:020000040000fa
:0401e800000500000e
:020000040000fa
:0401ec00000500000a
:020000040000fa
:0401f0000005000006
:020000040000fa
:0401f4000005000002
:020000040000fa
:0401f80000050000fe
:020000040000fa
:0401fc0000050000fa
:020000040000fa
:0402000000050000f5
:020000040000fa
:0402040000050000f1
:020000040000fa
:0402080000050000ed
:020000040000fa
:04020c0000050000e9
:020000040000fa
:0402100000050000e5
:020000040000fa
:0402140000050000e1
:020000040000fa
:0402180000050000dd
:020000040000fa
:04021c0000050000d9
:020000040000fa
:0402200000050000d5
:020000040000fa
:0402240000050000d1
:020000040000fa
:0402280000050000cd
:020000040000fa
:04022c0000050000c9
:020000040000fa
:0402300000050000c5
:020000040000fa
:0402340000050000c1
:020000040000fa
:0402380000050000bd
:020000040000fa
:04023c0000050000b9
:020000040000fa
:0402400000050000b5
:020000040000fa
:0402440000050000b1
:020000040000fa
:0402480000050000ad
:020000040000fa
:04024c0000050000a9
:020000040000fa
:0402500000050000a5
:020000040000fa
:0402540000050000a1
:020000040000fa
:04025800000500009d
:020000040000fa
:04025c000005000099
:020000040000fa
:040260000005000095
:020000040000fa
:040264000005000091
:020000040000fa
:04026800000500008d
:020000040000fa
:04026c000005000089
:020000040000fa
:040270000005000085
:020000040000fa
:040274000005000081
:020000040000fa
:04027800000500007d
:020000040000fa
:04027c000005000079
:020000040000fa
:040280000005000075
:020000040000fa
:040284000005000071
:020000040000fa
:04028800000500006d
:020000040000fa
:04028c000005000069
:020000040000fa
:040290000005000065
:020000040000fa
:040294000005000061
:020000040000fa
:04029800000500005d
:020000040000fa
:04029c000005000059
:020000040000fa
:0402a0000005000055
:020000040000fa
:0402a4000005000051
:020000040000fa
:0402a800000500004d
:020000040000fa
:0402ac000005000049
:020000040000fa
:0402b0000005000045
:020000040000fa
:0402b4000005000041
:020000040000fa
:0402b800000500003d
:020000040000fa
:0402bc000005000039
:020000040000fa
:0402c0000005000035
:020000040000fa
:0402c4000005000031
:020000040000fa
:0402c800000500002d
:020000040000fa
:0402cc000005000029
:020000040000fa
:0402d0000005000025
:020000040000fa
:0402d4000005000021
:020000040000fa
:0402d800000500001d
:020000040000fa
:0402dc000005000019
:020000040000fa
:0402e0000005000015
:020000040000fa
:0402e4000005000011
:020000040000fa
:0402e800000500000d
:020000040000fa
:0402ec000005000009
:020000040000fa
:0402f0000005000005
:020000040000fa
:0402f4000005000001
:020000040000fa
:0402f80000050000fd
:020000040000fa
:0402fc0000050000f9
:020000040000fa
:0403000000050000f4
:020000040000fa
:0403040000050000f0
:020000040000fa
:0403080000050000ec
:020000040000fa
:04030c0000050000e8
:020000040000fa
:0403100000050000e4
:020000040000fa
:0403140000050000e0
:020000040000fa
:0403180000050000dc
:020000040000fa
:04031c0000050000d8
:020000040000fa
:0403200000050000d4
:020000040000fa
:0403240000050000d0
:020000040000fa
:0403280000050000cc
:020000040000fa
:04032c0000050000c8
:020000040000fa
:0403300000050000c4
:020000040000fa
:0403340000050000c0
:020000040000fa
:10040000af0421000eff27000e018800000000004d
:10041000000020000000e000020032000001200087
:100420002002880014000700770107000000e000a8
:1004300003003a00202522000100200002003700be
:100440000000200001002000810f70000100320038
:100450000f000700000020000000e0000200320052
:1004600000000200000000003e2302000000000027
:100470000040da000000fe00802720000000e000bd
:1004800002003200002020009001880000000600d9
:10049000a1028800800478000000eb001f003700f4
:1004a000e284440054a0b4009905ba00e2844400f8
:1004b00054a0b4009906ba00e284440054a0b400e9
:1004c0000006eb00476fde00fd07b200ae018800ba
:1004d000636ce10003003a000ad801000000eb0061
:1004e0000e003700606ce10008003a00004deb00a0
:1004f0000a05e800020039003420ec000af0a000f0
:100500008b05e900f9ff3e00040037006168e10057
:10051000010032000086eb000b00070019c7ba008b
:100520001905ba000e04e00003003a000a00e000da
:10053000dbff3a0000000600fe07b200ae028800b2
:100540008a047800f5ff37000cd0a300e20f4d00bd
:100550001c003b0089027800354dba000a05e8000e
:10056000020039003420ec000af0a0008b05e900fd
:100570000f003200254dba000a05e80002003900dc
:100580003420ec000af0a0008b05e90008003200de
:100590000c00e0000600320015cdba000a05e800a4
:1005a000020039003420ec000af0a0008b05e900bd
:1005b0008984e80054a0b4000b00e000e2ff3a0098
:1005c000000006009902ba00055d78008b05e9007d
:1005d000f7ff3200c82ade00055d78008b05e900d0
:1005e000f3ff32000c00e000f1ff320019ddba0029
:1005f000eeff37009c1c040000000000ba1a040043
:1006000000000000b61b04000000000038100400c9
:10061000000000002c100400000000004410040042
:100620000000000050100400000000005c100400f6
:10063000000000006810040000000000820f0400a9
:10064000000000009610040000000000c410040028
:1006500000000000221104000000000050110400fe
:1006600000000000b4110400000000004212040069
:1006700000000000be12040000000000001304008f
:100680000000000026130400000000004c130400ca
:100690000000000072130400000000009813040022
:1006a00000000000c613040000000000f413040062
:1006b000000000002e140400000000005c14040080
:1006c00000000000001504000000000048160400af
:1006d00000000000a4150400000000005c0f0400ee
:1006e00000000000360f0400000000003218040073
:1006f0000000000060180400000000008e180400d4
:1007000000000000b217040000000000d817040029
:1007100000000000941a040000000000bc1804004f
:10072000000000003219040000000000a8190400b5
:10073000000000001e1a0400000000008a1c0400d3
:1007400000000000a41c040000000000241f04009e
:10075000000000003a1f040000000000521f0400c7
:10076000000000005a1f040000000000861f040063
:1007700000000000c21f040000000000ac1f0400c5
:1007800000000000d81f040000000000ee1f04005d
:10079000000000001e1f0400000000003600f800ea
:1007a000809fbe00829fbe00849fbe00869fbe00c9
:1007b0000000fa00c068a90020002000920f070086
:1007c0000080fa004f03be004f02be004f01be0082
:1007d0004f00be003600f900004006003600f80069
:1007e000809fbe00829fbe00849fbe00869fbe0089
:1007f0000000fa00c608a90070002000820f070060
:100800000080fa004f03be004f02be004f01be0041
:100810004f00be003600f900004006003600f80028
:10082000809fbe00829fbe00849fbe00869fbe0048
:100830000000fa0020468000700060000000e00028
:1008400003003200c488a900a00020006e0f07003a
:100850002146800000042000008060000000e000cd
:1008600003003200c4c8a900e0002000660f0700a2
:100870002146800000022000008060000000e000af
:1008800003003200c4a8a900900020005e0f0700fa
:100890002146800000102000008060000000e00081
:1008a00003003200c508a900c0002000560f070051
:1008b0002146800000202000008060000000e00051
:1008c00003003200c528a900d00020004e0f070009
:1008d00020468000610060000000e000030032005c
:1008e000c408a900b0002000470f0700ffff370031
:1008f0003600f800809fbe00829fbe00849fbe002d
:10090000869fbe000000fa00c028a9000000eb008e
:100910003d0f07000080fa004f03be004f02be00eb
:100920004f01be004f00be003600f9000040060037
:100930003600f800809fbe00829fbe00849fbe00ec
:10094000869fbe000000fa00c088a9003000200089
:100950002d0f07000080fa004f03be004f02be00bb
:100960004f01be004f00be003600f90000400600f7
:100970003600f800809fbe00829fbe00849fbe00ac
:10098000869fbe000000fa00260f0700c048a9009d
:10099000100020001c0f07000080fa004f03be006b
:1009a0004f02be004f01be004f00be003600f900ee
:1009b000004006003600f800809fbe00829fbe0007
:1009c000849fbe00869fbe000000fa00f080800079
:1009d0000000e00002003200f08080000000010012
:1009e00005a8a9000080fa004f03be004f02be0018
:1009f0004f01be004f00be003600f9000040060067
:100a00000040da000000fe00000005000001be000a
:100a10001b0007000470a70003f0a10003f8a30067
:100a200013003a006509b1001000320009003500da
:100a30006928e100020035000100280000000500df
:100a400000004000818048008502e900fcff3a0078
:100a500000000600f88f4200050035008100d1003b
:100a60000080d3008502e800fcff3a000000060089
:100a70008000eb00000005006011b8006a03370039
:100a8000c70ade00f107b200f50fb200080032001d
:100a9000e1cf4200020032000170a00024000500f6
:100aa000810f7000010032000408050044000500b9
:100ab000810f700002003a00140005008502e90071
:100ac0000000400081c04800fcff3b000170a00016
:100ad0002400050007f82700078361000638e100bd
:100ae00004003a00f7072000878361008703710044
:100af00001003a0003f0a200889fbe008a9fbe005a
:100b00008c9fbe00470ade000480a100c71ade00e9
:100b10000580a10007002800078560008785610027
:100b2000f70f20000720e1009e0032000728e100b7
:100b30009c003200010678000400e000b40032009e
:100b4000f7072000878060000170a0000500e0002a
:100b5000c0003200f7072000878161000370a00009
:100b6000050652000f003a000b50e1000b00320066
:100b70000308e10002003a000200e1007e003200ba
:100b80000204500083845800040031000001fd007d
:100b90008101fd008402fd008a05fd006044b8006b
:100ba000210037000520e10005003d000001fd00a7
:100bb0008101fd008402fd008a05fd00050652004a
:100bc0007a60e100050035000170a1004722dd00d8
:100bd000848070008a807000630037006044b80031
:100be000ef02660007ff2f00070666000500e00021
:100bf00006003400f08312008714dd000511de00ca
:100c0000071bdd00060171008519de007060e10040
:100c1000050035000904780082047800030178009b
:100c20008001eb00700656000b50e10003003a0013
:100c30000200400083804800040037006004140074
:100c4000e0841c0002005800838058000188a30043
:100c5000060032008100d1000080d3008984d300d7
:100c60000884d3000402e800270037000178a300bd
:100c700025003a000100e000030032008186cf0029
:100c8000698656000a0037008c0020000000e00052
:100c900004003a0009007800880478000004eb00a2
:100ca000700252008086cf000d0646000c06e90057
:100cb0007060e100060035008000780009007800cf
:100cc000880478000004eb007006560070025200a1
:100cd0000c00e0000c0034008c08dd00f00316006e
:100ce0000703de00868070000c00dd00074bde008d
:100cf000060070008c4cdd000743de008684740023
:100d00000c44dd000c0252006120e100200035009f
:100d1000610160000700280087816400f7ff270059
:100d200087836400070374000300e00006003200bc
:100d300082037300040032000000e800e0804800f5
:100d40000188a3000e003a00f70f20000720e10001
:100d50004a003d000170a1004722dd0081007200c1
:100d60008a8070000000be004f06be004f05be0026
:100d70004f04be00000006006000b800faff370014
:100d80008100d1000080d3000402e800eeff3700ac
:100d90000401780089017400a10107008a807000b5
:100da000f1ff3700f7010700070278000001fd009e
:100db0008101fd00f30107008702780085037200be
:100dc0000778a300040032000001fd008101fd004e
:100dd00006020700e4ff3700850362000768a300ee
:100de000080032000b50e10003003200f0ff2f003a
:100df000f1ff2700dcff37000001fd008101fd004d
:100e0000d9ff37000468a300d7ff3200faff37008c
:100e1000f8ff2700888360000b003a000000e00024
:100e200009003a00830364008283730002003200e9
:100e30000200be00ccff37000b50e100ceff3a00ad
:100e40000200be00c8ff37001400200081006400cb
:100e50003eff3700f8ff27008883610004003a0056
:100e60000200e00002003a008c007800beff37006c
:100e7000150020008301640039ff370001f82700c6
:100e80000000200081007500b7ff3700889fbe007a
:100e90008a9fbe008c9fbe001b0020000202be0085
:100ea0000586680006002800060666004709de0081
:100eb000f20fb200820032000243e80080003200ec
:100ec000c729de00f30fb2007d0032000343e800c3
:100ed0007b003200f107b2000170a000f507b200fc
:100ee0000570a000c708dd004903de0086807000a1
:100ef0004700dd00c72add004923de00868272003c
:100f00004722dd000305510004035000858358008b
:100f10000300310000004000818048000a05e9001c
:100f20008c1f78008a9fbe00040050008580580006
:100f30000402420085824a0000004000818048008f
:100f40000005eb000004be006033b8000406be00dc
:100f50000d48e10056003100050009004dccd800d5
:100f60000c01b8000d02b8008481410060824a0083
:100f70008283530003045c0084845c0060055d0090
:100f80000a00e00025003a00800578000d40e100ed
:100f9000490031008800780007007800050009004a
:100fa0004d88d8000c01b8000d02b80084814100c2
:100fb00060824a006003110083835b0004045c00cc
:100fc000e0845c000900e00021003a004f01be000f
:100fd0000300e0002b003200e3016000070673000d
:100fe0008c81710001003200640070004200de005c
:100ff0004e5edd000c007000c258de0001e0a00073
:1010000083010700cf017800818071004f06be0088
:101010004f05be004f04be00000006008c83430055
:101020000d044c00e0844c0060054d000000e90018
:101030000a00e000d4ff32008c8343000d044c0012
:10104000e0844c0060054d000000e900ceff370051
:101050000c0343008d834b0060044c00e0844c0083
:101060000000e9000900e000d8ff32000c03430053
:101070008d834b0060044c00e0844c000000e900cc
:10108000d2ff37004200de004e5edd000c00700033
:10109000c258de0001e0a000cf0178000300e000ac
:1010a000daff320060001000e0801800d7ff370040
:1010b000f0ff2f00aaff3700f0ff2f00b9ff370025
:1010c0000404be002f010700870678000004fd001d
:1010d0008104fd002b010700078366000678a3004a
:1010e000030032000960a7000800be002c00370092
:1010f0000d78a300020032000800be00280037006f
:101100000778a30026003a0001f0a10009f0a10031
:101110000668a30003003200f1ff2700f0ff2f0054
:10112000baff37000d68a300030032000800be00bc
:101130008c807000b5ff37000768a30007003a00f5
:101140000648a30003003200f1ff2700f0ff2f0044
:10115000aeff37000d48a300030032006000b80066
:101160008c807000a9ff37000748a30004003200fc
:1011700001f82700000020008c807000a3ff3700da
:10118000760107000004fd008104fd0002057800df
:10119000720107000802be008a01780059ff37007b
:1011a0000160a000120220004281880097ff3700f2
:1011b0000100e000120032000500e00010003200e3
:1011c000889fbe008a9fbe008c9fbe000006eb0079
:1011d00001f8a3000300320060001000e080180056
:1011e0000cf0a00005f8a30003003200600212001a
:1011f000e0821a000cf0a2008005eb0041ff3700ee
:101200006000b800020005000383680007002800a2
:1012100007036300470ade000480a100c71ade004e
:101220000580a100f70f20000720e10042003200f6
:101230000728e10040003200889fbe008a9fbe0060
:101240008c1f7800f107b200f307b2000400e00041
:10125000640032000170a0000500e0006800320068
:101260000370a00085054200eb07b1000204b8003e
:101270000302b8008484440060854a00020ab80072
:10128000848444000a854a00030ab8000405450026
:10129000040033000804d0008984d2000a85d200fb
:1012a0008b05e9006158e1003d0035000210200087
:1012b000090161000308200089816100f70720000f
:1012c0008783640008867300c84cde00c853dd00c5
:1012d000878474004855de000300e00006003200f9
:1012e00082037600040032008904e80060054d00a6
:1012f0000a88a3000c003a00f70f20000758e1000d
:1013000044003d000a70a100c75ddd000a8575003c
:101310008a007300090078004f0678004f05be0070
:101320004f04be00000006000a05d1008984d300e6
:101330008b05e800f0ff3700881f7800060478006e
:1013400090000700070278000001fd008101fd0008
:101350008c00070087027800850372000778a300dd
:10136000050032000001fd008101fd009f00070023
:101370004f04780000000600850372000748a300b0
:1013800003003200f0ff2f00f1ff2700f8ff3700c5
:101390000000200001f8270088807000f4ff37006b
:1013a000880178004848dd00808171004848de00ef
:1013b000c850dd0001007000c850de00060478004f
:1013c0000b0178001600070088807000d2ff3700fc
:1013d0000500e00005003200170020003a00070079
:1013e0009dff370081037000f9ff3a008600780006
:1013f0004f0678004f05be004f04be0000000500f8
:1014000083037100f9ff3200270020002e0007003f
:1014100094ff370001f8270086807000f4ff370042
:101420000100e00026003200610111007810e100a7
:1014300023003c006022b8007010e1000400350079
:1014400080027800010078008000eb0070015100fc
:101450000200e0000900340070031100062add00dc
:10146000822ade008603dd00878272000200de0031
:10147000860bdd00070070008208de0084817100a9
:10148000f4ff2700048262008481710004002800b8
:10149000848262006102600005f0a6000000060080
:1014a00004827100070032000000e800e08048007c
:1014b000000006000002be006000b800efff370029
:1014c0006000b80000000600889fbe000004eb002a
:1014d0006138e10016003a000100e00008003a001f
:1014e000c800de004800dd00880020000100e000a8
:1014f00003003a00c800de004800dd006804440034
:101500008184cf00e9845400060034008908dd009e
:10151000f08314008703de00878070000900dd007f
:1015200009044400610214004f04be0000000600dc
:101530000300e00008003a00c811de004811dd0099
:10154000880020000300e00003003a00c811de001c
:101550004811dd00680444008384cf00e98454000e
:10156000060034008919dd00f08314008713de00c3
:10157000878171000911dd0009044400e1021400b3
:10158000e9ff37002700200001f0a7001700200026
:10159000470bde00f60fb200040032000643e800fd
:1015a0000a0032004702b300000006000103780081
:1015b000f607b2000603700002003a000703b3000a
:1015c000000006008702b300000006000103780057
:1015d000f607b20006037000020032000770a00098
:1015e000000006000760a000000006000478a300c9
:1015f000040032000578a300030032000168a30054
:1016000001003a000200be000160a00000000600d8
:1016100081017000270032008002eb0001f8a30076
:101620000300320060001000e08018001500200068
:10163000f40720000202420020003400f7032000db
:1016400087036000060420000003630002082000f6
:10165000000161004700de00c909dd000080710063
:10166000c708de000600e0000800320087037100b2
:10167000060032001000b0000180b0000188a30015
:1016800002003200c108de000402e800f107b200e7
:10169000f30f20000320e10003003d004722dd009e
:1016a000810072002900370001f827000000eb00dc
:1016b000260037006000b800000006006802120033
:1016c0007f20e100020034006000b8001f003700f6
:1016d0006011b8007020e10004003500800178003e
:1016e000010078008000eb00700252000400e0006e
:1016f00009003400f00312000719dd008419de0030
:101700000703dd00868171000400de00070bdd00a9
:10171000060070008408de00f7ff27008383630063
:1017200087037100060028000303630007003200ee
:101730000700e00003003a006101600002817300cd
:10174000020032001000b0000180b0000500a600c9
:101750000000060001f0a000000006004f0ade00b5
:101760004709de00f107b200f20fb2000b003200b1
:10177000f207b1000170a000c708dd00c901de005a
:10178000838070004700dd000400a6000000060012
:1017900060001000e080180000000600810f70005b
:1017a00001003a00000006008182cf000500e00041
:1017b00010003e008082cf00ee8242007028e100df
:1017c0000400390007003e00800078000000eb00b4
:1017d0000e003700708312008600de000500dd0079
:1017e0000a003700708352008600dd000000eb0025
:1017f00006003700e28252008508dd007083120087
:101800000603de00868070000500dd007507b0006d
:101810000501ea000400a6000000060060001000b8
:10182000e080180000000600889fbe008a9fbe006e
:1018300000827000040271000482710026003200f0
:101840000004be000200be006011b8006b09200059
:10185000950220000182cf000a0039000541b10045
:101860000082cf00070039000541b1000982cf0096
:10187000040039000541b1000882cf0001003900a1
:101880000541b10005425200120032000a003b003f
:1018900082817100610164008100d1000080d30069
:1018a0008984d3000884d3008b05e8000442e80053
:1018b000f7ff3a00070037000804440089844c0011
:1018c00000004800818048008b05e9000442e900df
:1018d000f9ff3a00030007004f05be004f04be00a9
:1018e0000000060081002000618055000b003d00d3
:1018f0000b00200061fe2f000100e1001d003400fc
:1019000082817100610164008904d1000884d300e0
:101910000000e800faff3a00710020006100640056
:1019200003007000020060000900320061044400fe
:10193000e0844c000988a500050032008b05e80012
:101940006808e10002003a008904d1000884d3004d
:10195000f20f20000258e10005003d00c75ddd00e8
:10196000f907b200898075000800780000000600c1
:0c1970000bf827008b0078000000050039
:020000040000fa
:10197c00e8030000ab040000670500001806000037
:10198c00b806000043070000b40700000708000079
:10199c00390800004708000031080000f607000075
:1019ac0097070000180700007c060000c80500001f
:1019bc0003050000340400006303000097020000dc
:1019cc00d70100002901000092000000180000005f
:1019dc00000000000a0000006f0000002b01000056
:1019ec003202000077030000eb04000079060000cf
:1019fc0000000000000000000000000000000000db
:101a0c0000000000000000000000000000000000ca
:101a1c0000000000000000000000000000000000ba
:101a2c0000000000000000000000000000000000aa
:101d7c00ba1a0000b61b0000381000002c1000002e
:101d8c0044100000501000005c10000068100000af
:101d9c00820f000096100000c410000022110000f9
:101dac0050110000b411000042120000be120000dd
:101dbc0000130000261300004c13000072130000e7
:101dcc0098130000c6130000f41300002e1400003a
:101ddc005c1400000015000048160000a41500005b
:101dec0000000000000000000000000000000000e7
:101dfc0000000000000000005c0f0000360f000027
:101e0c0032180000601800008e180000b217000095
:101e1c00d8170000941a0000bc18000032190000fa
:101e2c00a81900001e1a00008a1c00000000000007
:101e3c00a41c000000000000241f00003a1f00003a
:101e4c00521f00005a1f0000861f0000c21f000016
:101e5c00ac1f0000d81f0000ee1f00008100000026
:020000040000fa
:101e6c000200fa00000f78001e007800e20f50000c
:101e7c0006003200e30f500006003200e10f500064
:101e8c0007003a002be3a8000600370061e3a80026
:101e9c000400370097e3a8000000000001003700a1
:101eac00000000000080fa00000006000200fa00aa
:101ebc00000f78001e007800e20f50000600320080
:101ecc00e30f500006003200e10f500007003a000b
:101edc002be3a9000600370061e3a90004003700da
:101eec0097e3a9000000000001003700000000008b
:101efc000080fa00000006000400fa00000f7800d1
:101f0c00110798001e007800e20f50001c003200f0
:101f1c00e30f500032003200e10f500048003a004d
:101f2c001e00900000407800674060000080fb00bd
:101f3c00670060005219800081ff2f008100610052
:101f4c0001007000501988001e009000e20f500034
:101f5c0006003a0091198000f0fc2f000080600010
:101f6c000040a000901988003600370091198000bd
:101f7c00f0fc2f00008060009019880031003700c1
:101f8c001e00900000407800674060000080fb005d
:101f9c0067006000021b800081ff2f008100610040
:101fac0001007000001b88001e009000e20f500022
:101fbc0006003a00411b8000f0fc2f0000806000fe
:101fcc000040a000401b88001e003700411b800011
:101fdc00f0fc2f0000806000401b880019003700c7
:101fec001e00900000407800674060000080fb00fd
:101ffc0067006000b21c800081ff2f00810061002f
:10200c0001007000b01c88001e009000e20f500010
:10201c0006003a00f11c8000f0fc2f0000806000ec
:10202c000040a000f01c880006003700f11c800066
:10203c00f0fc2f0000806000f01c880001003700cd
:10204c00000000000080fa00000006000000fa000a
:10205c002be3a80061e3a80097e3a8000080fa0036
:10206c00000006000000fa002be3a90061e3a900c0
:10207c0097e3a9000080fa00000006000200fa00b5
:10208c00000f78009e007800511888000080fa003c
:10209c00000006000200fa00000f78009e00780095
:1020ac00411888000080fa00000006000200fa00c7
:1020bc00000f78009e007800311888000080fa002c
:1020cc00000006000400fa00000f780011079800c9
:1020dc001e007800e20f500007003200e30f5000a2
:1020ec0008003200e10f50000a003a009e009000f8
:1020fc00911a8800080037009e009000411c88004f
:10210c00050037009e009000f11d880000000000c3
:10211c0001003700000000000080fa0000000600fb
:10212c000400fa00000f7800110798001e007800d8
:10213c00e20f500007003200e30f5000080032009d
:10214c00e10f50000a003a009e009000711a8800be
:10215c00080037009e009000211c88000500370005
:10216c009e009000d11d8800000000000100370087
:10217c00000000000080fa00000006000400fa00d5
:10218c00000f7800110798001e007800e20f500035
:10219c000f003200e30f500018003200e10f500026
:1021ac0022003a001e009000004078006140600060
:1021bc000080fb00610060004d00dd0061198000b3
:1021cc0001d0a100010070006019880018003700d0
:1021dc001e00900000407800614060000080fb0011
:1021ec00610060004d00dd00111b800001d0a100da
:1021fc0001007000101b88000d0037001e009000bd
:10220c0000407800614060000080fb0061006000cd
:10221c004d00dd00c11c800001d0a1000100700048
:10222c00c01c880000000000010037000000000006
:10223c000080fa00000006000400fa00000f78008d
:10224c00110798001e007800e20f500007003200c2
:10225c00e30f500008003200e10f50000a003a0072
:10226c009e009000611a8800080037009e009000c4
:10227c00111c8800050037009e009000c11d8800cd
:10228c000000000001003700000000000080fa0090
:10229c00000006000400fa00000f780011079800f7
:1022ac001e007800e20f500010003200e30f5000c7
:1022bc001a003200e10f500025003a001e00900079
:1022cc0000407800634060000080fb006300600009
:1022dc004a00dd0082198000f13f2f00810061006f
:1022ec0001007000801988001a0037001e00900051
:1022fc0000407800634060000080fb0063006000d9
:10230c004a00dd00321b8000f13f2f00810061008c
:10231c0001007000301b88000e0037001e0090007a
:10232c0000407800634060000080fb0063006000a8
:10233c004a00dd00e21c8000f13f2f0081006100ab
:10234c0001007000e01c8800000000000100370054
:10235c00000000000080fa00000006000400fa00f3
:10236c00000f7800214798001e007800e20f500003
:10237c0017003200e30f500028003200e10f50002c
:10238c003a003a0080198000ba800a000000000070
:10239c00e14060002e4090000080fb0000004000f7
:1023ac000040780000c07000634060000080fb00bb
:1023bc00630060004a00dd0082198000f13f2f00ad
:1023cc00810061000100700080198800280037002e
:1023dc00301b8000ba800a0000000000e140600061
:1023ec002e4090000080fb00000040000040780070
:1023fc0000c07000634060000080fb006300600060
:10240c004a00dd00321b8000f13f2f00810061008b
:10241c0001007000301b880015003700e01c8000a4
:10242c00ba800a0000000000e14060002e409000dd
:10243c000080fb00000040000040780000c07000ed
:10244c00634060000080fb00630060004a00dd0018
:10245c00e21c8000f13f2f00810061000100700040
:10246c00e01c8800000000000100370000000000a4
:10247c000080fa00000006000400fa00000f78004b
:10248c00214798001e007800e20f50001400320023
:10249c00e30f500022003200e10f500031003a00ef
:1024ac0080198000ba800a0000000000e240600041
:1024bc002e40900000c07000634060000080fb0064
:1024cc00630060004a00dd0082198000f13f2f009c
:1024dc008100610001007000801988002200370023
:1024ec00301b8000ba800a0000000000e24060004f
:1024fc002e40900000c07000634060000080fb0024
:10250c00630060004a00dd00321b8000f13f2f00a9
:10251c008100610001007000301b88001200370040
:10252c00e01c8000ba800a0000000000e24060005d
:10253c002e40900000c07000634060000080fb00e3
:10254c00630060004a00dd00e21c8000f13f2f00b8
:10255c008100610001007000e01c88000000000098
:10256c0001003700000000000080fa0000000600a7
:10257c000400fa00100798000000eb00000f780030
:10258c001e009000e20f50000a003200e30f5000d2
:10259c000e003200e10f500012003a00801980004a
:1025ac00ba800a00000000000080fb00000f7800d9
:1025bc000d003700301b8000ba800a0000000000bc
:1025cc000080fb00000f780007003700e01c800043
:1025dc00ba800a00000000000080fb00000f7800a9
:1025ec0001003700000000001e0078000080fa0097
:1025fc00000006000200fa00000f78001e007800b0
:10260c00e20f500006003200e30f500006003200cb
:10261c00e10f500007003a0031a3a8000600370074
:10262c0067a3a800040037009da3a80000000000c9
:10263c0001003700000000000080fa0000000600d6
:10264c000200fa00000f78001e007800e20f500024
:10265c0006003200e30f500006003200e10f50007c
:10266c0007003a003183a800060037006783a800f2
:10267c00040037009d83a800000000000100370013
:10268c00000000000080fa00000006000200fa00c2
:10269c00000f78001e007800e20f50000600320098
:1026ac00e30f500006003200e10f500007003a0023
:1026bc0031a3a9000600370067a3a9000400370066
:1026cc009da3a900000000000100370000000000dd
:1026dc000080fa00000006000200fa00000f7800eb
:1026ec001e007800e20f500006003200e30f50008d
:1026fc0006003200e10f500007003a003183a900b8
:10270c00060037006783a900040037009d83a900e9
:10271c000000000001003700000000000080fa00fb
:10272c00000006000400fa00000f78001107980062
:10273c001e007800e20f500007003200e30f50003b
:10274c0008003200e10f50000a003a009e00900091
:10275c00d11a8800080037009e009000811c880068
:10276c00050037009e009000311e8800000000001c
:10277c0001003700000000000080fa000000060095
:10278c000400fa00000f7800110798001e00780072
:10279c00e20f500007003200e30f50000800320037
:1027ac00e10f50000a003a009e009000e11a8800e8
:1027bc00080037009e009000911c8800050037002f
:1027cc009e009000411e88000000000001003700b0
:1027dc00000000000080fa00000006000400fa006f
:1027ec00000f7800110798001e007800e20f5000cf
:1027fc0009003200e30f50000c003200e10f5000d2
:10280c0010003a009e009000d11a88009e009000a3
:10281c00e11a88000c0037009e009000811c880093
:10282c009e009000911c8800070037009e009000cd
:10283c00311e88009e009000411e880000000000a0
:10284c0001003700000000000080fa0000000600c4
:10285c000400fa00000f7800110798001e007800a1
:10286c00e20f500007003200e30f50000800320066
:10287c00e10f50000a003a009e009000a11a880057
:10288c00080037009e009000511c8800050037009e
:10289c009e009000011e880000000000010037001f
:1028ac00000000000080fa00000006000400fa009e
:1028bc00000f7800110798001e007800e20f5000fe
:1028cc001b003200e30f500030003200e10f5000cb
:1028dc0045003a001e009000e20f50000c00320040
:1028ec00e20f500003003e00e10f500006003200e2
:1028fc000d003700e30f500007003200e40f5000ca
:10290c00070032000800370037e3a8000700370043
:10291c0037c3a8000500370037a3a8000300370011
:10292c003783a80001003700000000002f0037009b
:10293c001e009000e20f50000c003200e20f50001d
:10294c0003003e00e10f5000060032000d0037007e
:10295c00e30f500007003200e40f50000700320074
:10296c00080037006de3a800070037006dc3a8000e
:10297c00050037006da3a800030037006d83a80085
:10298c000100370000000000180037001e00900006
:10299c00e20f50000c003200e20f500003003e002a
:1029ac00e10f5000060032000d003700e30f50001d
:1029bc0007003200e40f5000070032000800370017
:1029cc00a3e3a80006003700a3c3a8000400370047
:1029dc00a3a3a80002003700a383a80000000000f6
:1029ec000000000001003700000000000080fa0029
:1029fc00000006000400fa00000f78001107980090
:102a0c001e007800e20f50001b003200e30f500054
:102a1c0030003200e10f500045003a001e009000db
:102a2c00e20f50000c003200e20f500003003e0099
:102a3c00e10f5000060032000d003700e30f50008c
:102a4c0007003200e40f5000070032000800370086
:102a5c0037e3a9000700370037c3a900050037008a
:102a6c0037a3a900030037003783a9000100370002
:102a7c00000000002f0037001e009000e20f5000f5
:102a8c000c003200e20f500003003e00e10f50003a
:102a9c00060032000d003700e30f50000700320033
:102aac00e40f500007003200080037006de3a90066
:102abc00070037006dc3a900050037006da3a900fe
:102acc00030037006d83a9000100370000000000ef
:102adc00180037001e009000e20f50000c0032006e
:102aec00e20f500003003e00e10f500006003200e0
:102afc000d003700e30f500007003200e40f5000c8
:102b0c000700320008003700a3e3a90006003700d5
:102b1c00a3c3a90004003700a3a3a9000200370037
:102b2c00a383a90000000000000000000100370092
:102b3c00000000000080fa00000006000400fa000b
:102b4c00000f7800110798001e007800e20f50006b
:102b5c001b003200e30f500030003200e10f500038
:102b6c0045003a001e009000e20f50000c003200ad
:102b7c00e20f500003003e00e10f5000060032004f
:102b8c000d003700e30f500007003200e40f500037
:102b9c0007003200080037002fc3a90007003700d8
:102bac002fa3a900050037002f83a90003003700cd
:102bbc002fe3a90001003700000000002f003700b0
:102bcc001e009000e20f50000c003200e20f50008b
:102bdc0003003e00e10f5000060032000d003700ec
:102bec00e30f500007003200e40f500007003200e2
:102bfc000800370065c3a9000700370065a3a900ca
:102c0c00050037006583a9000300370065e3a900c0
:102c1c000100370000000000180037001e00900073
:102c2c00e20f50000c003200e20f500003003e0097
:102c3c00e10f5000060032000d003700e30f50008a
:102c4c0007003200e40f5000070032000800370084
:102c5c009bc3a900060037009ba3a9000400370002
:102c6c009b83a900020037009be3a9000000000031
:102c7c000000000001003700000000000080fa0096
:102c8c00000006000600fa001007980021079800c3
:102c9c000040eb00004f78001e009000e20f500047
:102cac003b003200e30f500070003200e10f500087
:102cbc00a5003a002e009000e20f500014003200e4
:102ccc00e20f500003003e00e10f500006003200fe
:102cdc002d003700e30f500017003200e40f5000b6
:102cec001f0032002800370070198000ee800a00a7
:102cfc00000000000080fb0000f0a7000000ea00cc
:102d0c000000ea004f00de00004f78001f00370083
:102d1c0070198000dd800a00000000000080fb00bc
:102d2c0000f0a7000000ea000000ea004f00de00ff
:102d3c00004f78001500370070198000cc800a0015
:102d4c00000000000080fb0000f0a7000000ea007b
:102d5c000000ea004f00de00004f78000b00370047
:102d6c0070198000ff800a00000000000080fb004a
:102d7c0000f0a7000000ea000000ea004f00de00af
:102d8c00004f780001003700000000006f00370092
:102d9c002e009000e20f500014003200e20f5000a1
:102dac0003003e00e10f5000060032002d003700fa
:102dbc00e30f500017003200e40f50001f003200e8
:102dcc0028003700201b8000ee800a000000000065
:102ddc000080fb0000f0a7000000ea000000ea0001
:102dec004f00de00004f78001f003700201b8000d2
:102dfc00dd800a00000000000080fb0000f0a7004e
:102e0c000000ea000000ea004f00de00004f7800ee
:102e1c0015003700201b8000cc800a000000000049
:102e2c000080fb0000f0a7000000ea000000ea00b0
:102e3c004f00de00004f78000b003700201b800095
:102e4c00ff800a00000000000080fb0000f0a700db
:102e5c000000ea000000ea004f00de00004f78009e
:102e6c000100370000000000380037002e009000f1
:102e7c00e20f500014003200e20f500003003e003d
:102e8c00e10f5000060032002d003700e30f500018
:102e9c0017003200e40f50001f00320028003700ea
:102eac00d01c8000ee800a00000000000080fb00b7
:102ebc0000f0a7000000ea000000ea004f00de006e
:102ecc00004f78001f003700d01c8000dd800a0006
:102edc00000000000080fb0000f0a7000000ea00ea
:102eec000000ea004f00de00004f780015003700ac
:102efc00d01c8000cc800a00000000000080fb0089
:102f0c0000f0a7000000ea000000ea004f00de001d
:102f1c00004f78000b003700d01c8000ff800a00a7
:102f2c00000000000080fb0000f0a7000000ea0099
:102f3c000000ea004f00de00004f7800010037006f
:102f4c000000000001003700000000001e40780067
:102f5c000080fa00000006000200fa00000f780062
:102f6c001e007800e20f500006003200e30f500004
:102f7c0006003200e10f500007003a002e63a80053
:102f8c00060037006463a800040037009a63a800a9
:102f9c000000000001003700000000000080fa0073
:102fac00000006000400fa00100798000040eb0037
:102fbc00004f78001e009000e20f50000e0032000f
:102fcc00e30f500016003200e10f50001e003a00d3
:102fdc007019800044800a00000000000080fb0093
:102fec0000f0a7000000ea000000ea004f00de003d
:102ffc00004f780015003700201b800044800a0029
:10300c00000000000080fb0000f0a7000000ea00b8
:10301c000000ea004f00de00004f78000b00370084
:10302c00d01c800044800a00000000000080fb00df
:10303c0000f0a7000000ea000000ea004f00de00ec
:10304c00004f780001003700000000001e4078009f
:10305c000080fa00000006000400fa00000f78005f
:10306c00110798001e007800e20f50000700320094
:10307c00e30f500008003200e10f50000a003a0044
:10308c009e009000a11a8800080037009e00900056
:10309c00511c8800050037009e009000011e88001e
:1030ac000000000001003700000000000080fa0062
:1030bc00000006000400fa00000f780011079800c9
:1030cc001e007800e20f500007003200e30f5000a2
:1030dc0008003200e10f50000a003a009e009000f8
:1030ec00b11a8800080037009e009000611c88000f
:1030fc00050037009e009000111e880000000000a3
:10310c0001003700000000000080fa0000000600fb
:10311c000400fa00000f7800110798001e007800d8
:10312c00e20f500007003200e30f5000080032009d
:10313c00e10f50000a003a009e009000c11a88006e
:10314c00080037009e009000711c880005003700b5
:10315c009e009000211e8800000000000100370036
:10316c00000000000080fa00000006000400fa00d5
:10317c00000f7800110798001e007800e20f500035
:10318c0013003200e30f500020003200e10f50001a
:10319c002e003a001e009000e20f50000700320093
:1031ac00e30f500007003200e10f50000100320025
:1031bc00060037003503a800040037003523a800ab
:1031cc00020037003543a800000000002000370043
:1031dc001e009000e20f500007003200e30f500079
:1031ec0007003200e10f50000100320006003700ea
:1031fc006b03a800040037006b23a8000200370003
:10320c006b43a80000000000110037001e00900066
:10321c00e20f500006003200e30f500006003200af
:10322c00e10f500006003a00a103a800050037008a
:10323c00a123a80003003700a143a8000100370018
:10324c00000000000000000001003700000000003a
:10325c000080fa00000006000400fa00000f78005d
:10326c00110798001e007800e20f50001300320086
:10327c00e30f500020003200e10f50002e003a0006
:10328c001e009000e20f500007003200e30f5000c8
:10329c0007003200e10f5000010032000600370039
:1032ac003503a900040037003523a90002003700bc
:1032bc003543a90000000000200037001e009000dc
:1032cc00e20f500007003200e30f500007003200fd
:1032dc00e10f500001003200060037006b03a9001b
:1032ec00040037006b23a900020037006b43a900d0
:1032fc0000000000110037001e009000e20f50008b
:10330c0006003200e30f500006003200e10f5000bf
:10331c0006003a00a103a90005003700a123a9006b
:10332c0003003700a143a900010037000000000092
:10333c000000000001003700000000000080fa00cf
:10334c00000006000400fa00000f78001107980036
:10335c001e007800e20f500013003200e30f500003
:10336c0020003200e10f50002e003a001e009000a9
:10337c00e20f500007003200e30f5000070032004c
:10338c00e10f5000010032000600370036a3a80000
:10339c000400370036c3a8000200370036e3a8004b
:1033ac0000000000200037001e009000e20f5000cb
:1033bc0007003200e30f500007003200e10f50000d
:1033cc0001003200060037006ca3a800040037008f
:1033dc006cc3a800020037006ce3a80000000000da
:1033ec00110037001e009000e20f50000600320062
:1033fc00e30f500006003200e10f500006003a00c7
:10340c00a2a3a80005003700a2c3a8000300370040
:10341c00a2e3a8000100370000000000000000003b
:10342c0001003700000000000080fa0000000600d8
:10343c000400fa00000f7800110798001e007800b5
:10344c00e20f500013003200e30f50002000320056
:10345c00e10f50002e003a001e009000e20f5000c9
:10346c0007003200e30f500007003200e10f50005c
:10347c00010032000600370036a3a9000400370013
:10348c0036c3a9000200370036e3a9000000000093
:10349c00200037001e009000e20f500007003200a1
:1034ac00e30f500007003200e10f50000100320022
:1034bc00060037006ca3a900040037006cc3a900f8
:1034cc00020037006ce3a900000000001100370077
:1034dc001e009000e20f500006003200e30f500077
:1034ec0006003200e10f500006003a00a2a3a9002a
:1034fc0005003700a2c3a90003003700a2e3a9000e
:10350c00010037000000000000000000010037003f
:10351c00000000000080fa00000006000200fa0023
:10352c00000f78001e007800e20f500006003200f9
:10353c00e30f500006003200e10f500007003a0084
:10354c0038e3a800060037006ee3a800040037003b
:10355c00a4e3a800000000000100370000000000f8
:10356c000080fa00000006000000fa00c0002000f5
:10357c0050198800c0002000001b8800c0002000eb
:10358c00b01c88005e23ef003e23ef003c23ef00cd
:10359c0000102000601988004e23ef005023ef002c
:1035ac005c23ef005a23ef003623ef00800020004d
:1035bc00a01988004223ef004023ef003a23ef00cc
:1035cc003823ef00c0002000901988000020200054
:1035dc00801988004a23ef004823ef0000012000e7
:1035ec00901a88004c23ef004623ef004423ef0091
:1035fc002e23ef005423ef005623ef005823ef0047
:10360c009423ef007423ef007223ef0000102000ce
:10361c00101b88008423ef008623ef009223ef0019
:10362c009023ef006c23ef0080002000501b8800db
:10363c007823ef007623ef007023ef006e23ef006a
:10364c00c0002000401b880000202000301b880098
:10365c008023ef007e23ef0000012000401c880037
:10366c008223ef007c23ef007a23ef006423ef002a
:10367c008a23ef008c23ef008e23ef00ca23ef0088
:10368c00aa23ef00a823ef0000102000c01c880024
:10369c00ba23ef00bc23ef00c823ef00c623ef00d2
:1036ac00a223ef0080002000001d8800ae23ef0055
:1036bc00ac23ef00a623ef00a423ef00c0002000f2
:1036cc00f01c880000202000e01c8800b623ef00ce
:1036dc00b423ef0000012000f01d8800b823ef0098
:1036ec00b223ef00b023ef009a23ef00c023ef00ca
:1036fc00c223ef00c423ef001023ef000e23ef00d2
:10370c000223ef000423ef000c23ef001223ef0041
:10371c001423ef001623ef001823ef001a23ef00f9
:10372c001c23ef000823ef0000082000501888002d
:10373c000623ef000023ef001e23ef002023ef00f1
:10374c002223ef002423ef002623ef002823ef0091
:10375c00c0c921006c0007000080fa0000000600c0
:10376c000000fa003ffa07002a23ef006023ef0065
:10377c009623ef005e23ef003e23ef003c23ef0087
:10378c002c23ef004e23ef005023ef005c23ef00bf
:10379c005a23ef003623ef003423ef004223ef00cf
:1037ac004023ef003a23ef003823ef003223ef00e1
:1037bc003023ef004a23ef004823ef005223ef00a1
:1037cc004c23ef004623ef004423ef002e23ef00a1
:1037dc005423ef005623ef005823ef009423ef00ff
:1037ec007423ef007223ef006223ef008423ef00b9
:1037fc008623ef009223ef009023ef006c23ef0061
:10380c006a23ef007823ef007623ef007023ef009c
:10381c006e23ef006823ef006623ef008023ef0098
:10382c007e23ef008823ef008223ef007c23ef0040
:10383c007a23ef006423ef008a23ef008c23ef0040
:10384c008e23ef00ca23ef00aa23ef00a823ef007a
:10385c009823ef00ba23ef00bc23ef00c823ef003e
:10386c00c623ef00a223ef00a023ef00ae23ef004e
:10387c00ac23ef00a623ef00a423ef009e23ef0060
:10388c009c23ef00b623ef00b423ef00be23ef0020
:10389c00b823ef00b223ef00b023ef009a23ef0020
:1038ac00c023ef00c223ef00c423ef001023ef006e
:1038bc000e23ef000223ef000423ef000c23ef0094
:1038cc001223ef001423ef001623ef001823ef0050
:1038dc001a23ef001c23ef000823ef000a23ef004c
:1038ec000623ef000023ef001e23ef002023ef0040
:1038fc002223ef002423ef002623ef002823ef00e0
:10390c000080fa00000006000200fa00000f7800a8
:10391c001e0078000000e000020032009e007800db
:10392c00218188000080fa00000006000200fa00e5
:10393c00000f78000080fa00000006000200fa0078
:10394c00000f78001e007800e20f500010003200cb
:10395c00e30f50001a003200e10f500025003a002e
:10396c0040408000680060000000e000230032004e
:10397c00208180000000e0000300320021818000e3
:10398c001e007800010001000868a9002000370023
:10399c0040408000700060000000e0001900320020
:1039ac00208180000000e0000300320021818000b3
:1039bc001e007800010001000888a90014003700df
:1039cc004140800000022000008060000000e00008
:1039dc000e003200208180000000e0000300320065
:1039ec00218180001e0078000100010008a8a900b8
:1039fc000700370000000000050037000000000041
:103a0c000300370000000000010037000000000038
:103a1c000080fa00000006000400fa00100798006d
:103a2c000040eb00004f78001e0090000000e0000a
:103a3c0002003d0010c0b300004f78001e4078001b
:103a4c000080fa00000006000400fa00100798003d
:103a5c000040eb00004f78009e0090000000240016
:103a6c00008060000000e0000200320010c0b300d3
:103a7c00004f78001e4078000080fa00000006001d
:103a8c000400fa00100798000040eb00004f78008b
:103a9c009e00900000202000008060000000e000ec
:103aac000200320010c0b300004f78001e407800b6
:103abc000080fa00000006000400fa0010079800cd
:103acc000040eb00004f78009e00900000082000a2
:103adc00008060000000e0000200320010c0b30063
:103aec00004f78001e4078000080fa0000000600ad
:103afc000400fa00100798000040eb00004f78001b
:103b0c009e00900000042000008060000000e00097
:103b1c000200320010c0b300004f78001e40780045
:103b2c000080fa00000006000400fa00100798005c
:103b3c000040eb00004f78001e0090007000600009
:103b4c000000e0000200320010c0b300004f78000b
:103b5c001e4078000080fa00000006000200fa0007
:103b6c00000f78009e80ea00007c800000806000de
:103b7c00007c88000080fa00000006000000fa00bb
:103b8c00007c80000080fa00000006000200fa00b1
:103b9c00faff0700000f78001e0078009eff070058
:103bac000004e0000200320000002800ebff0700d8
:103bbc001e007800a4ff07000004e00002003200a1
:103bcc0000002400e5ff07001e007800acff070092
:103bdc000004e0000200320000202000dfff07009c
:103bec001e007800b4ff07000004e0000200320061
:103bfc0000082000d9ff07001e007800bcff07005a
:103c0c000004e0000200320000042000d3ff070093
:103c1c001e007800c4ff07000004e0000200320020
:103c2c0000012000cdff07000080fa000000060014
:103c3c000000fa00802fef000080fa000000060060
:103c4c000000fa00c3e8a80000000000000000001b
:103c5c000080fa00000006000000fa00c3e8a9008a
:103c6c0000000000000000000080fa0000000600c8
:103c7c000000fa00f8ff070031020700f0ff070010
:103c8c00e0f121006100070025a8a8000080fa00df
:103c9c00000006000000fa0000002800e002880086
:103cac000080fa00000006000000fa00000024006a
:103cbc000003880010c0b30018f0b7000080fa00b1
:103ccc00000006000000fa001870ef000000000071
:103cdc0040038000610060000000e000fcff320047
:103cec0080002000200388000080fa0000000600fd
:103cfc000200fa000040eb00004f78004003800007
:103d0c0061006000004078000004e0000200320016
:103d1c0010c0b300004f78001e4078000080fa00fd
:103d2c00000006000000fa0018d0bf000080fa0066
:103d3c00000006000400fa006000b800008fbe000e
:103d4c00b00380008000eb00c000dd00000020000c
:103d5c00008fbe00a00380008000eb003e017000cd
:103d6c00ae8170000200be000080fa000000060068
:103d7c000400fa006000b800008fbe00d003800081
:103d8c008000eb00c000dd0000002000008fbe00b2
:103d9c00c00380008000eb003e017000ae8170001b
:103dac000200be000080fa00000006000200fa00cb
:103dbc000000eb00000f780041038000100e200083
:103dcc00008f60001e0078000080fa0000000600e2
:103ddc000400fa006000b800008fbe007003800081
:103dec008000eb00c000dd0000002000008fbe0052
:103dfc00600380008000eb003e017000ae8170001b
:103e0c000200be000080fa00000006000200fa006a
:103e1c00000f78001e0078000000e0000200320065
:103e2c009e007800f18088000080fa0000000600f7
:103e3c000000fa000080fa00000006000000fa0002
:103e4c007025ef006225ef006425ef006825ef0078
:103e5c007825ef007a25ef0010082000002b880051
:103e6c000080fa00000006000000fa000a000700bb
:103e7c007025ef006025ef006225ef006425ef0050
:103e8c0080022000402b88007825ef007a25ef0077
:103e9c000080fa00000006000000fa0061e5a900ad
:103eac000080fa00000006000400fa002047980089
:103ebc000040eb00004f7800012b80000000280030
:103ecc00008060000000e0000a003a002e409000e4
:103edc000080fb008000400040f328000080400080
:103eec0010007800002b880061e5a80010c0b3001a
:103efc00004f78001e4078000080fa000000060099
:103f0c000200fa00004f780000000000402b8000f7
:103f1c00620060000000e000fcff3a001e80fb0025
:103f2c00602b880000000000412b80000002200064
:103f3c00008060000000e000fbff3a00602b800076
:103f4c00004078000080fa00000006000200fa0031
:103f5c00004f780000000000402b800062006000e1
:103f6c000000e000fcff3a001e80fb00602b880084
:103f7c000080fa00000006000000fa0000000000bb
:103f8c00412b800000022000008060000000e00057
:103f9c00fbff3a00602b8000004078000080fa00a4
:103fac00000006000000fa00412b800000022000f7
:103fbc000080600000f0a7000000ea000000e900ab
:103fcc004f00de00004078000080fa000000060080
:103fdc000000fa00402b80006200600000f0a70097
:103fec000000ea000000e9004f00de00004078000d
:103ffc000080fa00000006000000fa00217c80001e
:10400c00000027008080600000002100808f50009d
:10401c0006003200217c80000000270080806000b8
:10402c0000002300808f50001c003a0085cfbf0099
:10403c008080fb0080ff2f00008160008007200043
:10404c00a109200053f820008049780081497800ac
:10405c0082497800120020006004200071052000c5
:10406c0043f8200080497800814978008249780023
:10407c0000000000207c8000610060000000e00077
:10408c00fcff3a0000000000217c800000022000b0
:10409c00008060000000e000fbff320010002300f5
:1040ac00307c880060092000407c88008c2fef0059
:1040bc0010042000507c880010102000707c8800b8
:1040cc0060092000807c880010042000907c88000f
:1040dc0000502000d07c8800b82fef00ba2fef00e2
:1040ec00be2fef00002def00a02fef00a42fef004c
:1040fc00a62fef00a82fef00aa2fef00ae2fef0096
:10410c00b02fef00b22fef0022002000800720001c
:10411c00a109200053f820008049780081497800db
:10412c00824978000001eb0060042000710520003a
:10413c0043f8200080497800814978008249780052
:10414c000080fa00000006000000fa00707c80007d
:10415c00ee800a00000000000080fb0000f0a700c9
:10416c000000ea000000ea004f00de00004078008a
:10417c000080fa00000006000000fa00062eef0096
:10418c00222eef003e2eef005a2eef00762eef007f
:10419c00922eef00f01f200010708800d03f2000fe
:1041ac00f07088000080eb00d0718800b0ff2f0009
:1041bc00b07288000080eb00907388000080eb00e8
:1041cc00707488000a2eef00262eef00422eef00ae
:1041dc005e2eef007a2eef00962eef000c2eef00e5
:1041ec00282eef00442eef00602eef007c2eef0007
:1041fc00982eef00082eef00242eef00402eef003b
:10420c005c2eef00782eef00942eef00f0012000d2
:10421c0000708800c0092000e0708800f00c2000bd
:10422c00c071880000c02200a0728800f00020003d
:10423c0080738800003c2000607488000000eb0054
:10424c0051052000b1468800a10a2000b146880023
:10425c000068880000c4b3002dedb70010c4b30093
:10426c002cedb70030c4b3002eedb700116d8000fb
:10427c0000f82f00008060005000b300106d880023
:10428c000080200051052000b1468800a10a2000c2
:10429c00b1468800006888000080fa000000060023
:1042ac000200fa00000f78001e0078003000900029
:1042bc00e10f500010003a001e007800100078004a
:1042cc008000eb00e9f107000002be001e00780040
:1042dc00a0009000100090000001be000400be0081
:1042ec0002f20700c6f10700800078001e0078007b
:1042fc0001087800120037001e00780010007800ca
:10430c008000eb00d9f107000002be001e0078000f
:10431c00a0009000100090000001be000400be0040
:10432c00e9f107000200200003382400eff1070038
:10433c00b3f10700800078001e00780001087800b7
:10434c001e00780090007800f00f20008080600044
:10435c001e007800010878001e007800100078001c
:10436c0080004000e0cb2800008040001000780066
:10437c000080fa00000006000600fa00000f78002a
:10438c00120798002307980002002000232824001d
:10439c001e009000ae009000b9f207000200200051
:1043ac000338240095f307001e01780010019800d3
:1043bc00210198000080fa00000006000400fa00b9
:1043cc0000002000010a2400008fbe001e00be0069
:1043dc00020007000080fa00000006000400fa004a
:1043ec00008fbe001e01be0000002100e2ff07008e
:1043fc001e01be0080002100dfff07001e01be0071
:10440c0000012100dcff07000080fa00000006001c
:10441c000200fa00000f7800000021009e007800d6
:10442c0031009800800021009e0078003100980037
:10443c00000121009e007800310098000080fa00f5
:10444c00000006000600fa000000210094ff07009f
:10445c00000f78008000210091ff070010079800e2
:10446c00000121008eff0700200798009e007800b5
:10447c0010c4b300770007009e00900020c4b30066
:10448c0074000700ae00900030c4b3007100070048
:08449c000080fa000000060098
:020000040000fa
:1044a4002410000002000000800000002a10000018
:1044b4002000000080000000261000000200000020
:1044c40082000000ffff0000201000000400000034
:1044d40080000000181000000800000080000000a8
:1044e400001000001800000082000000000000001e
:1044f4000000000001005500000000000000010061
:1045040000aa0000000000000001000028100000c4
:0c45140002000000800000000000000019
:020000040000fa
:104520000000fe00ee1e020000000000821f780066
:10453000d2808000000011000200200081001900dc
:104540004f017800000006000000fe00801f780088
:10455000811f7800821f780060038000801f780030
:10456000ee1e0200000000004f0178000201500022
:104570000201e900d28088004f017800cf00780066
:104580004f007800000006000000fa00c3e8a80011
:1045900000000000000000000080fa00000006009b
:1045a0000000fa0097fe0700f6fe0700b3fd0700c3
:1045b000f0fb070024fe0700f3ff070002000700de
:1045c0000080fa00000006000000fa00b1428000fe
:1045d000f0f82f00008060000040a000b04288008a
:1045e0000080fa00000006000000fa00b1428000de
:1045f000f0f82f00008060000060a000b04288004a
:104600000080fa00000006000200fa00000f7800a7
:104610009e007800318188000000fe000080fa00d2
:10462000000006000000fa00a002210080077800c8
:1046300020042100000188000080fa00000006002c
:10464000809fbe00ec805700310078000081880018
:104650001100780022f0b7004f00be0000000600f5
:104660000600fa002047980021079800100020005b
:10467000000f78000080fa00000006000000fa0039
:10468000c7ff070050ff070071ff0700feff37005c
:020000040000fa
:020000040015e5
:04fe0000ffffff0001
:020000040000fa
:020000040015e5
:04fe2000ffffff00e1
:020000040000fa
:020000040015e5
:04fe30007affff0056
:020000040000fa
:020000040015e5
:04fe3800bcffff000c
:020000040000fa
:020000040015e5
:04fe4000ff7fff0041
:020000040000fa
:020000040015e5
:04fe4800ffffff00b9
:020000040000fa
:020000040015e5
:04fe5000dfffff00d1
:020000040000fa
:020000040015e5
:04fe58000000ff00a7
:020000040000fa
:020000040015e5
:04fe60000000ff009f
:020000040000fa
:020000040015e5
:04fe68000000ff0097
:020000040000fa
:020000040015e5
:04fe70000000ff008f
:020000040000fa
:020000040015e5
:04fe7800ffffff0089
:020000040000fa
:020000040015e5
:04fe8000fffcff0084
:020000040000fa
:020000040015e5
:04fe8800ffffff0079
:020000040000fa
:020000040015e5
:04fff800ffffff0008
:020000040000fa
:020000040100f9
:04300000ffffff00cf
:00000001FF
